{
  "_format": "hh-sol-artifact-1",
  "contractName": "Campaign",
  "sourceName": "contracts/FundChainX.sol",
  "abi": [
    {
      "inputs": [
        {
          "internalType": "address",
          "name": "_creator",
          "type": "address"
        },
        {
          "internalType": "uint256",
          "name": "_minimumContribution",
          "type": "uint256"
        },
        {
          "internalType": "uint256",
          "name": "_targetContribution",
          "type": "uint256"
        },
        {
          "internalType": "uint256",
          "name": "_deadline",
          "type": "uint256"
        }
      ],
      "stateMutability": "nonpayable",
      "type": "constructor"
    },
    {
      "inputs": [],
      "name": "ReentrancyGuardReentrantCall",
      "type": "error"
    },
    {
      "anonymous": false,
      "inputs": [
        {
          "indexed": true,
          "internalType": "address",
          "name": "campaignAddress",
          "type": "address"
        },
        {
          "indexed": false,
          "internalType": "enum Campaign.CampaignState",
          "name": "newState",
          "type": "uint8"
        }
      ],
      "name": "CampaignStateChanged",
      "type": "event"
    },
    {
      "anonymous": false,
      "inputs": [
        {
          "indexed": true,
          "internalType": "address",
          "name": "contributor",
          "type": "address"
        },
        {
          "indexed": false,
          "internalType": "uint256",
          "name": "amount",
          "type": "uint256"
        },
        {
          "indexed": false,
          "internalType": "uint256",
          "name": "currentTotal",
          "type": "uint256"
        },
        {
          "indexed": false,
          "internalType": "uint256",
          "name": "timestamp",
          "type": "uint256"
        }
      ],
      "name": "ContributionReceived",
      "type": "event"
    },
    {
      "anonymous": false,
      "inputs": [
        {
          "indexed": true,
          "internalType": "address",
          "name": "creator",
          "type": "address"
        },
        {
          "indexed": false,
          "internalType": "uint256",
          "name": "amount",
          "type": "uint256"
        }
      ],
      "name": "FundsWithdrawn",
      "type": "event"
    },
    {
      "anonymous": false,
      "inputs": [
        {
          "indexed": true,
          "internalType": "address",
          "name": "contributor",
          "type": "address"
        },
        {
          "indexed": false,
          "internalType": "uint256",
          "name": "amount",
          "type": "uint256"
        }
      ],
      "name": "RefundIssued",
      "type": "event"
    },
    {
      "anonymous": false,
      "inputs": [
        {
          "indexed": true,
          "internalType": "address",
          "name": "creator",
          "type": "address"
        },
        {
          "indexed": false,
          "internalType": "uint256",
          "name": "amount",
          "type": "uint256"
        }
      ],
      "name": "RemainingFundsWithdrawn",
      "type": "event"
    },
    {
      "inputs": [],
      "name": "abortCampaign",
      "outputs": [],
      "stateMutability": "nonpayable",
      "type": "function"
    },
    {
      "inputs": [],
      "name": "claimRefund",
      "outputs": [],
      "stateMutability": "nonpayable",
      "type": "function"
    },
    {
      "inputs": [],
      "name": "contribute",
      "outputs": [],
      "stateMutability": "payable",
      "type": "function"
    },
    {
      "inputs": [
        {
          "internalType": "uint256",
          "name": "",
          "type": "uint256"
        }
      ],
      "name": "contributions",
      "outputs": [
        {
          "internalType": "address",
          "name": "contributor",
          "type": "address"
        },
        {
          "internalType": "uint256",
          "name": "amount",
          "type": "uint256"
        },
        {
          "internalType": "uint256",
          "name": "timestamp",
          "type": "uint256"
        }
      ],
      "stateMutability": "view",
      "type": "function"
    },
    {
      "inputs": [
        {
          "internalType": "address",
          "name": "",
          "type": "address"
        }
      ],
      "name": "contributorAmounts",
      "outputs": [
        {
          "internalType": "uint256",
          "name": "",
          "type": "uint256"
        }
      ],
      "stateMutability": "view",
      "type": "function"
    },
    {
      "inputs": [],
      "name": "contributorsCount",
      "outputs": [
        {
          "internalType": "uint256",
          "name": "",
          "type": "uint256"
        }
      ],
      "stateMutability": "view",
      "type": "function"
    },
    {
      "inputs": [],
      "name": "creator",
      "outputs": [
        {
          "internalType": "address",
          "name": "",
          "type": "address"
        }
      ],
      "stateMutability": "view",
      "type": "function"
    },
    {
      "inputs": [],
      "name": "creatorWithdrawnRemainingFunds",
      "outputs": [
        {
          "internalType": "bool",
          "name": "",
          "type": "bool"
        }
      ],
      "stateMutability": "view",
      "type": "function"
    },
    {
      "inputs": [],
      "name": "deadline",
      "outputs": [
        {
          "internalType": "uint256",
          "name": "",
          "type": "uint256"
        }
      ],
      "stateMutability": "view",
      "type": "function"
    },
    {
      "inputs": [],
      "name": "getCampaignDetails",
      "outputs": [
        {
          "internalType": "address",
          "name": "_creator",
          "type": "address"
        },
        {
          "internalType": "uint256",
          "name": "_minimumContribution",
          "type": "uint256"
        },
        {
          "internalType": "uint256",
          "name": "_deadline",
          "type": "uint256"
        },
        {
          "internalType": "uint256",
          "name": "_targetContribution",
          "type": "uint256"
        },
        {
          "internalType": "uint256",
          "name": "_raisedAmount",
          "type": "uint256"
        },
        {
          "internalType": "uint256",
          "name": "_contributorsCount",
          "type": "uint256"
        },
        {
          "internalType": "enum Campaign.CampaignState",
          "name": "_state",
          "type": "uint8"
        },
        {
          "internalType": "uint256",
          "name": "_totalRefunded",
          "type": "uint256"
        },
        {
          "internalType": "uint256",
          "name": "_refundPeriodEnd",
          "type": "uint256"
        }
      ],
      "stateMutability": "view",
      "type": "function"
    },
    {
      "inputs": [],
      "name": "getCampaignSummary",
      "outputs": [
        {
          "internalType": "uint256",
          "name": "numBackers",
          "type": "uint256"
        },
        {
          "internalType": "uint256",
          "name": "currentAmount",
          "type": "uint256"
        },
        {
          "internalType": "uint256",
          "name": "minContribution",
          "type": "uint256"
        },
        {
          "internalType": "uint256",
          "name": "campaignDeadline",
          "type": "uint256"
        },
        {
          "internalType": "uint256",
          "name": "targetAmount",
          "type": "uint256"
        },
        {
          "internalType": "enum Campaign.CampaignState",
          "name": "currentState",
          "type": "uint8"
        }
      ],
      "stateMutability": "view",
      "type": "function"
    },
    {
      "inputs": [],
      "name": "getContributors",
      "outputs": [
        {
          "components": [
            {
              "internalType": "address",
              "name": "contributor",
              "type": "address"
            },
            {
              "internalType": "uint256",
              "name": "amount",
              "type": "uint256"
            },
            {
              "internalType": "uint256",
              "name": "timestamp",
              "type": "uint256"
            }
          ],
          "internalType": "struct Campaign.Contribution[]",
          "name": "",
          "type": "tuple[]"
        }
      ],
      "stateMutability": "view",
      "type": "function"
    },
    {
      "inputs": [],
      "name": "getUpdatedCampaignStatus",
      "outputs": [
        {
          "internalType": "enum Campaign.CampaignState",
          "name": "currentState",
          "type": "uint8"
        },
        {
          "internalType": "uint256",
          "name": "computedRefundPeriodEnd",
          "type": "uint256"
        }
      ],
      "stateMutability": "view",
      "type": "function"
    },
    {
      "inputs": [],
      "name": "minimumContribution",
      "outputs": [
        {
          "internalType": "uint256",
          "name": "",
          "type": "uint256"
        }
      ],
      "stateMutability": "view",
      "type": "function"
    },
    {
      "inputs": [],
      "name": "raisedAmount",
      "outputs": [
        {
          "internalType": "uint256",
          "name": "",
          "type": "uint256"
        }
      ],
      "stateMutability": "view",
      "type": "function"
    },
    {
      "inputs": [],
      "name": "refundPeriodEnd",
      "outputs": [
        {
          "internalType": "uint256",
          "name": "",
          "type": "uint256"
        }
      ],
      "stateMutability": "view",
      "type": "function"
    },
    {
      "inputs": [],
      "name": "state",
      "outputs": [
        {
          "internalType": "enum Campaign.CampaignState",
          "name": "",
          "type": "uint8"
        }
      ],
      "stateMutability": "view",
      "type": "function"
    },
    {
      "inputs": [],
      "name": "targetContribution",
      "outputs": [
        {
          "internalType": "uint256",
          "name": "",
          "type": "uint256"
        }
      ],
      "stateMutability": "view",
      "type": "function"
    },
    {
      "inputs": [],
      "name": "totalRefunded",
      "outputs": [
        {
          "internalType": "uint256",
          "name": "",
          "type": "uint256"
        }
      ],
      "stateMutability": "view",
      "type": "function"
    },
    {
      "inputs": [],
      "name": "withdrawFunds",
      "outputs": [],
      "stateMutability": "nonpayable",
      "type": "function"
    },
    {
      "inputs": [],
      "name": "withdrawRemainingFunds",
      "outputs": [],
      "stateMutability": "nonpayable",
      "type": "function"
    },
    {
      "inputs": [],
      "name": "withdrawalDelay",
      "outputs": [
        {
          "internalType": "uint256",
          "name": "",
          "type": "uint256"
        }
      ],
      "stateMutability": "view",
      "type": "function"
    },
    {
      "stateMutability": "payable",
      "type": "receive"
    }
  ],
  "bytecode": "0x6080604052621275006008553480156200001857600080fd5b50604051620029533803806200295383398181016040528101906200003e9190620001ac565b600160008190555083600160006101000a81548173ffffffffffffffffffffffffffffffffffffffff021916908373ffffffffffffffffffffffffffffffffffffffff1602179055508260028190555081600481905550806003819055506000600a60016101000a81548160ff02191690836005811115620000c557620000c46200021e565b5b02179055506000600581905550600060068190555060006007819055506000600a60006101000a81548160ff021916908315150217905550505050506200024d565b600080fd5b600073ffffffffffffffffffffffffffffffffffffffff82169050919050565b600062000139826200010c565b9050919050565b6200014b816200012c565b81146200015757600080fd5b50565b6000815190506200016b8162000140565b92915050565b6000819050919050565b620001868162000171565b81146200019257600080fd5b50565b600081519050620001a6816200017b565b92915050565b60008060008060808587031215620001c957620001c862000107565b5b6000620001d9878288016200015a565b9450506020620001ec8782880162000195565b9350506040620001ff8782880162000195565b9250506060620002128782880162000195565b91505092959194509250565b7f4e487b7100000000000000000000000000000000000000000000000000000000600052602160045260246000fd5b6126f6806200025d6000396000f3fe6080604052600436106101395760003560e01c8063a00c96d7116100ab578063b82c86d61161006f578063b82c86d6146104b0578063c19d93fb146104db578063c59ee1dc14610506578063d7bb99ba14610531578063d90829621461053b578063ef86ce8e1461056657610203565b8063a00c96d7146103fc578063a7ab69611461042c578063a7c8cc7c14610457578063af157c191461046e578063b5545a3c1461049957610203565b806359730bb5116100fd57806359730bb5146102e757806362838af51461031257806367d8841d1461033e5780636da00694146103695780637569b3d7146103a6578063937e09b1146103d157610203565b806302d05d3f146102085780630c611f24146102335780631cee07001461026657806324600fc3146102a557806329dcb0cf146102bc57610203565b36610203576000600581111561015257610151611868565b5b600a60019054906101000a900460ff16600581111561017457610173611868565b5b146101b4576040517f08c379a00000000000000000000000000000000000000000000000000000000081526004016101ab9061191a565b60405180910390fd5b6002543410156101f9576040517f08c379a00000000000000000000000000000000000000000000000000000000081526004016101f0906119ac565b60405180910390fd5b61020161057d565b005b600080fd5b34801561021457600080fd5b5061021d610880565b60405161022a9190611a0d565b60405180910390f35b34801561023f57600080fd5b506102486108a6565b60405161025d99989796959493929190611a89565b60405180910390f35b34801561027257600080fd5b5061028d60048036038101906102889190611b47565b610919565b60405161029c93929190611b74565b60405180910390f35b3480156102b157600080fd5b506102ba610973565b005b3480156102c857600080fd5b506102d1610c3d565b6040516102de9190611bab565b60405180910390f35b3480156102f357600080fd5b506102fc610c43565b6040516103099190611bab565b60405180910390f35b34801561031e57600080fd5b50610327610c49565b604051610335929190611bc6565b60405180910390f35b34801561034a57600080fd5b50610353610ce8565b6040516103609190611c0a565b60405180910390f35b34801561037557600080fd5b50610390600480360381019061038b9190611c51565b610cfb565b60405161039d9190611bab565b60405180910390f35b3480156103b257600080fd5b506103bb610d13565b6040516103c89190611bab565b60405180910390f35b3480156103dd57600080fd5b506103e6610d19565b6040516103f39190611bab565b60405180910390f35b34801561040857600080fd5b50610411610d1f565b60405161042396959493929190611c7e565b60405180910390f35b34801561043857600080fd5b50610441610d5a565b60405161044e9190611bab565b60405180910390f35b34801561046357600080fd5b5061046c610d60565b005b34801561047a57600080fd5b50610483610eda565b6040516104909190611dee565b60405180910390f35b3480156104a557600080fd5b506104ae610fa3565b005b3480156104bc57600080fd5b506104c5611341565b6040516104d29190611bab565b60405180910390f35b3480156104e757600080fd5b506104f0611347565b6040516104fd9190611e10565b60405180910390f35b34801561051257600080fd5b5061051b61135a565b6040516105289190611bab565b60405180910390f35b61053961057d565b005b34801561054757600080fd5b50610550611360565b60405161055d9190611bab565b60405180910390f35b34801561057257600080fd5b5061057b611366565b005b61058561179d565b60035442106105c9576040517f08c379a00000000000000000000000000000000000000000000000000000000081526004016105c090611e9d565b60405180910390fd5b600060058111156105dd576105dc611868565b5b600a60019054906101000a900460ff1660058111156105ff576105fe611868565b5b1461063f576040517f08c379a00000000000000000000000000000000000000000000000000000000081526004016106369061191a565b60405180910390fd5b600254341015610684576040517f08c379a000000000000000000000000000000000000000000000000000000000815260040161067b906119ac565b60405180910390fd5b6000600b60003373ffffffffffffffffffffffffffffffffffffffff1673ffffffffffffffffffffffffffffffffffffffff16815260200190815260200160002054036106e457600660008154809291906106de90611eec565b91905055505b34600b60003373ffffffffffffffffffffffffffffffffffffffff1673ffffffffffffffffffffffffffffffffffffffff16815260200190815260200160002060008282546107339190611f34565b92505081905550600c60405180606001604052803373ffffffffffffffffffffffffffffffffffffffff16815260200134815260200142815250908060018154018082558091505060019003906000526020600020906003020160009091909190915060008201518160000160006101000a81548173ffffffffffffffffffffffffffffffffffffffff021916908373ffffffffffffffffffffffffffffffffffffffff1602179055506020820151816001015560408201518160020155505034600560008282546108059190611f34565b925050819055503373ffffffffffffffffffffffffffffffffffffffff167f13b6f2136ffc494c97353c1a45f1345b7cf9e18d3631acec99aeea45f338f4c4346005544260405161085893929190611f68565b60405180910390a2600454600554106108765761087560016117e3565b5b61087e61185e565b565b600160009054906101000a900473ffffffffffffffffffffffffffffffffffffffff1681565b60008060008060008060008060008060006108bf610c49565b91509150600160009054906101000a900473ffffffffffffffffffffffffffffffffffffffff1660025460035460045460055460065487600754889a509a509a509a509a509a509a509a509a505050909192939495969798565b600c818154811061092957600080fd5b90600052602060002090600302016000915090508060000160009054906101000a900473ffffffffffffffffffffffffffffffffffffffff16908060010154908060020154905083565b600160009054906101000a900473ffffffffffffffffffffffffffffffffffffffff1673ffffffffffffffffffffffffffffffffffffffff163373ffffffffffffffffffffffffffffffffffffffff1614610a03576040517f08c379a00000000000000000000000000000000000000000000000000000000081526004016109fa90612011565b60405180910390fd5b610a0b61179d565b6000610a15610c49565b50905060016005811115610a2c57610a2b611868565b5b816005811115610a3f57610a3e611868565b5b14610a7f576040517f08c379a0000000000000000000000000000000000000000000000000000000008152600401610a76906120a3565b60405180910390fd5b60004711610ac2576040517f08c379a0000000000000000000000000000000000000000000000000000000008152600401610ab990612135565b60405180910390fd5b60004790506004600a60016101000a81548160ff02191690836005811115610aed57610aec611868565b5b02179055506000600160009054906101000a900473ffffffffffffffffffffffffffffffffffffffff1673ffffffffffffffffffffffffffffffffffffffff1682604051610b3a90612186565b60006040518083038185875af1925050503d8060008114610b77576040519150601f19603f3d011682016040523d82523d6000602084013e610b7c565b606091505b5050905080610bc0576040517f08c379a0000000000000000000000000000000000000000000000000000000008152600401610bb79061220d565b60405180910390fd5b600160009054906101000a900473ffffffffffffffffffffffffffffffffffffffff1673ffffffffffffffffffffffffffffffffffffffff167feaff4b37086828766ad3268786972c0cd24259d4c87a80f9d3963a3c3d999b0d83604051610c289190611bab565b60405180910390a2505050610c3b61185e565b565b60035481565b60095481565b600080600a60019054906101000a900460ff169150600954905060006005811115610c7757610c76611868565b5b600a60019054906101000a900460ff166005811115610c9957610c98611868565b5b148015610ca857506003544210155b15610ce45760045460055410610cc15760019150610ce3565b60059150600060095403610ce257600854600354610cdf9190611f34565b90505b5b5b9091565b600a60009054906101000a900460ff1681565b600b6020528060005260406000206000915090505481565b60065481565b60025481565b6000806000806000806000610d32610c49565b5090506006546005546002546003546004548596509650965096509650965050909192939495565b60085481565b600160009054906101000a900473ffffffffffffffffffffffffffffffffffffffff1673ffffffffffffffffffffffffffffffffffffffff163373ffffffffffffffffffffffffffffffffffffffff1614610df0576040517f08c379a0000000000000000000000000000000000000000000000000000000008152600401610de790612011565b60405180910390fd5b610df861179d565b6003544210610e3c576040517f08c379a0000000000000000000000000000000000000000000000000000000008152600401610e339061229f565b60405180910390fd5b60006005811115610e5057610e4f611868565b5b600a60019054906101000a900460ff166005811115610e7257610e71611868565b5b14610eb2576040517f08c379a0000000000000000000000000000000000000000000000000000000008152600401610ea990612331565b60405180910390fd5b610ebc60036117e3565b60085442610eca9190611f34565b600981905550610ed861185e565b565b6060600c805480602002602001604051908101604052809291908181526020016000905b82821015610f9a57838290600052602060002090600302016040518060600160405290816000820160009054906101000a900473ffffffffffffffffffffffffffffffffffffffff1673ffffffffffffffffffffffffffffffffffffffff1673ffffffffffffffffffffffffffffffffffffffff1681526020016001820154815260200160028201548152505081526020019060010190610efe565b50505050905090565b610fab61179d565b600080610fb6610c49565b9150915060036005811115610fce57610fcd611868565b5b826005811115610fe157610fe0611868565b5b14806110105750600580811115610ffb57610ffa611868565b5b82600581111561100e5761100d611868565b5b145b61104f576040517f08c379a0000000000000000000000000000000000000000000000000000000008152600401611046906123c3565b60405180910390fd5b6000600b60003373ffffffffffffffffffffffffffffffffffffffff1673ffffffffffffffffffffffffffffffffffffffff168152602001908152602001600020549050600081116110d6576040517f08c379a00000000000000000000000000000000000000000000000000000000081526004016110cd90612455565b60405180910390fd5b600660008154809291906110e990612475565b91905055506000600b60003373ffffffffffffffffffffffffffffffffffffffff1673ffffffffffffffffffffffffffffffffffffffff1681526020019081526020016000208190555080600760008282546111459190611f34565b92505081905550600060058111156111605761115f611868565b5b600a60019054906101000a900460ff16600581111561118257611181611868565b5b1480156111b2575060058081111561119d5761119c611868565b5b8360058111156111b0576111af611868565b5b145b1561123957816009819055506005600a60016101000a81548160ff021916908360058111156111e4576111e3611868565b5b02179055503073ffffffffffffffffffffffffffffffffffffffff167fa8d5c14115099311b7981b7ebd776175ed4ef68210204b310275cc0921bb65e160056040516112309190611e10565b60405180910390a25b60003373ffffffffffffffffffffffffffffffffffffffff168260405161125f90612186565b60006040518083038185875af1925050503d806000811461129c576040519150601f19603f3d011682016040523d82523d6000602084013e6112a1565b606091505b50509050806112e5576040517f08c379a00000000000000000000000000000000000000000000000000000000081526004016112dc906124ea565b60405180910390fd5b3373ffffffffffffffffffffffffffffffffffffffff167fa171b6942063c6f2800ce40a780edce37baa2b618571b11eedd1e69e626e7d768360405161132b9190611bab565b60405180910390a25050505061133f61185e565b565b60045481565b600a60019054906101000a900460ff1681565b60055481565b60075481565b600160009054906101000a900473ffffffffffffffffffffffffffffffffffffffff1673ffffffffffffffffffffffffffffffffffffffff163373ffffffffffffffffffffffffffffffffffffffff16146113f6576040517f08c379a00000000000000000000000000000000000000000000000000000000081526004016113ed90612011565b60405180910390fd5b6113fe61179d565b600080611409610c49565b915091506005808111156114205761141f611868565b5b82600581111561143357611432611868565b5b14611473576040517f08c379a000000000000000000000000000000000000000000000000000000000815260040161146a9061257c565b60405180910390fd5b804210156114b6576040517f08c379a00000000000000000000000000000000000000000000000000000000081526004016114ad9061260e565b60405180910390fd5b600a60009054906101000a900460ff1615611506576040517f08c379a00000000000000000000000000000000000000000000000000000000081526004016114fd906126a0565b60405180910390fd5b60004711611549576040517f08c379a000000000000000000000000000000000000000000000000000000000815260040161154090612135565b60405180910390fd5b60004790506001600a60006101000a81548160ff0219169083151502179055506000600581111561157d5761157c611868565b5b600a60019054906101000a900460ff16600581111561159f5761159e611868565b5b03611626576005600a60016101000a81548160ff021916908360058111156115ca576115c9611868565b5b0217905550816009819055503073ffffffffffffffffffffffffffffffffffffffff167fa8d5c14115099311b7981b7ebd776175ed4ef68210204b310275cc0921bb65e1600560405161161d9190611e10565b60405180910390a25b6004600a60016101000a81548160ff0219169083600581111561164c5761164b611868565b5b02179055506000600160009054906101000a900473ffffffffffffffffffffffffffffffffffffffff1673ffffffffffffffffffffffffffffffffffffffff168260405161169990612186565b60006040518083038185875af1925050503d80600081146116d6576040519150601f19603f3d011682016040523d82523d6000602084013e6116db565b606091505b505090508061171f576040517f08c379a00000000000000000000000000000000000000000000000000000000081526004016117169061220d565b60405180910390fd5b600160009054906101000a900473ffffffffffffffffffffffffffffffffffffffff1673ffffffffffffffffffffffffffffffffffffffff167f1e563d9e18af5db6fd44fc692df8325fdf25841bc9ba0ec5ea17f128b12766e3836040516117879190611bab565b60405180910390a25050505061179b61185e565b565b6002600054036117d9576040517f3ee5aeb500000000000000000000000000000000000000000000000000000000815260040160405180910390fd5b6002600081905550565b80600a60016101000a81548160ff0219169083600581111561180857611807611868565b5b02179055503073ffffffffffffffffffffffffffffffffffffffff167fa8d5c14115099311b7981b7ebd776175ed4ef68210204b310275cc0921bb65e1826040516118539190611e10565b60405180910390a250565b6001600081905550565b7f4e487b7100000000000000000000000000000000000000000000000000000000600052602160045260246000fd5b600082825260208201905092915050565b7f43616d706169676e3a204e6f7420616363657074696e6720636f6e747269627560008201527f74696f6e73000000000000000000000000000000000000000000000000000000602082015250565b6000611904602583611897565b915061190f826118a8565b604082019050919050565b60006020820190508181036000830152611933816118f7565b9050919050565b7f43616d706169676e3a20436f6e747269627574696f6e2062656c6f77206d696e60008201527f696d756d00000000000000000000000000000000000000000000000000000000602082015250565b6000611996602483611897565b91506119a18261193a565b604082019050919050565b600060208201905081810360008301526119c581611989565b9050919050565b600073ffffffffffffffffffffffffffffffffffffffff82169050919050565b60006119f7826119cc565b9050919050565b611a07816119ec565b82525050565b6000602082019050611a2260008301846119fe565b92915050565b6000819050919050565b611a3b81611a28565b82525050565b60068110611a5257611a51611868565b5b50565b6000819050611a6382611a41565b919050565b6000611a7382611a55565b9050919050565b611a8381611a68565b82525050565b600061012082019050611a9f600083018c6119fe565b611aac602083018b611a32565b611ab9604083018a611a32565b611ac66060830189611a32565b611ad36080830188611a32565b611ae060a0830187611a32565b611aed60c0830186611a7a565b611afa60e0830185611a32565b611b08610100830184611a32565b9a9950505050505050505050565b600080fd5b611b2481611a28565b8114611b2f57600080fd5b50565b600081359050611b4181611b1b565b92915050565b600060208284031215611b5d57611b5c611b16565b5b6000611b6b84828501611b32565b91505092915050565b6000606082019050611b8960008301866119fe565b611b966020830185611a32565b611ba36040830184611a32565b949350505050565b6000602082019050611bc06000830184611a32565b92915050565b6000604082019050611bdb6000830185611a7a565b611be86020830184611a32565b9392505050565b60008115159050919050565b611c0481611bef565b82525050565b6000602082019050611c1f6000830184611bfb565b92915050565b611c2e816119ec565b8114611c3957600080fd5b50565b600081359050611c4b81611c25565b92915050565b600060208284031215611c6757611c66611b16565b5b6000611c7584828501611c3c565b91505092915050565b600060c082019050611c936000830189611a32565b611ca06020830188611a32565b611cad6040830187611a32565b611cba6060830186611a32565b611cc76080830185611a32565b611cd460a0830184611a7a565b979650505050505050565b600081519050919050565b600082825260208201905092915050565b6000819050602082019050919050565b611d14816119ec565b82525050565b611d2381611a28565b82525050565b606082016000820151611d3f6000850182611d0b565b506020820151611d526020850182611d1a565b506040820151611d656040850182611d1a565b50505050565b6000611d778383611d29565b60608301905092915050565b6000602082019050919050565b6000611d9b82611cdf565b611da58185611cea565b9350611db083611cfb565b8060005b83811015611de1578151611dc88882611d6b565b9750611dd383611d83565b925050600181019050611db4565b5085935050505092915050565b60006020820190508181036000830152611e088184611d90565b905092915050565b6000602082019050611e256000830184611a7a565b92915050565b7f43616d706169676e3a20436f6e747269627574696f6e20646561646c696e652060008201527f7061737365640000000000000000000000000000000000000000000000000000602082015250565b6000611e87602683611897565b9150611e9282611e2b565b604082019050919050565b60006020820190508181036000830152611eb681611e7a565b9050919050565b7f4e487b7100000000000000000000000000000000000000000000000000000000600052601160045260246000fd5b6000611ef782611a28565b91507fffffffffffffffffffffffffffffffffffffffffffffffffffffffffffffffff8203611f2957611f28611ebd565b5b600182019050919050565b6000611f3f82611a28565b9150611f4a83611a28565b9250828201905080821115611f6257611f61611ebd565b5b92915050565b6000606082019050611f7d6000830186611a32565b611f8a6020830185611a32565b611f976040830184611a32565b949350505050565b7f43616d706169676e3a20556e617574686f72697a6564202d2043726561746f7260008201527f206f6e6c79000000000000000000000000000000000000000000000000000000602082015250565b6000611ffb602583611897565b915061200682611f9f565b604082019050919050565b6000602082019050818103600083015261202a81611fee565b9050919050565b7f43616d706169676e3a2043616e6e6f74207769746864726177202d20476f616c60008201527f206e6f7420726561636865640000000000000000000000000000000000000000602082015250565b600061208d602c83611897565b915061209882612031565b604082019050919050565b600060208201905081810360008301526120bc81612080565b9050919050565b7f43616d706169676e3a204e6f2066756e647320617661696c61626c6520746f2060008201527f7769746864726177000000000000000000000000000000000000000000000000602082015250565b600061211f602883611897565b915061212a826120c3565b604082019050919050565b6000602082019050818103600083015261214e81612112565b9050919050565b600081905092915050565b50565b6000612170600083612155565b915061217b82612160565b600082019050919050565b600061219182612163565b9150819050919050565b7f43616d706169676e3a205769746864726177616c207472616e7366657220666160008201527f696c656400000000000000000000000000000000000000000000000000000000602082015250565b60006121f7602483611897565b91506122028261219b565b604082019050919050565b60006020820190508181036000830152612226816121ea565b9050919050565b7f43616d706169676e3a2043616e6e6f742061626f72742061667465722064656160008201527f646c696e65000000000000000000000000000000000000000000000000000000602082015250565b6000612289602583611897565b91506122948261222d565b604082019050919050565b600060208201905081810360008301526122b88161227c565b9050919050565b7f43616d706169676e3a2043616e206f6e6c792061626f7274206163746976652060008201527f63616d706169676e000000000000000000000000000000000000000000000000602082015250565b600061231b602883611897565b9150612326826122bf565b604082019050919050565b6000602082019050818103600083015261234a8161230e565b9050919050565b7f43616d706169676e3a20526566756e6473206e6f742063757272656e746c792060008201527f616c6c6f77656400000000000000000000000000000000000000000000000000602082015250565b60006123ad602783611897565b91506123b882612351565b604082019050919050565b600060208201905081810360008301526123dc816123a0565b9050919050565b7f43616d706169676e3a204e6f20636f6e747269627574696f6e7320746f20726560008201527f66756e6400000000000000000000000000000000000000000000000000000000602082015250565b600061243f602483611897565b915061244a826123e3565b604082019050919050565b6000602082019050818103600083015261246e81612432565b9050919050565b600061248082611a28565b91506000820361249357612492611ebd565b5b600182039050919050565b7f43616d706169676e3a20526566756e64207472616e73666572206661696c6564600082015250565b60006124d4602083611897565b91506124df8261249e565b602082019050919050565b60006020820190508181036000830152612503816124c7565b9050919050565b7f43616d706169676e3a2043616e6e6f74207769746864726177202d2043616d7060008201527f6169676e206e6f74206661696c65640000000000000000000000000000000000602082015250565b6000612566602f83611897565b91506125718261250a565b604082019050919050565b6000602082019050818103600083015261259581612559565b9050919050565b7f43616d706169676e3a20526566756e6420706572696f64206e6f7420656e646560008201527f6400000000000000000000000000000000000000000000000000000000000000602082015250565b60006125f8602183611897565b91506126038261259c565b604082019050919050565b60006020820190508181036000830152612627816125eb565b9050919050565b7f43616d706169676e3a20416c72656164792077697468647261776e2072656d6160008201527f696e696e672066756e6473000000000000000000000000000000000000000000602082015250565b600061268a602b83611897565b91506126958261262e565b604082019050919050565b600060208201905081810360008301526126b98161267d565b905091905056fea2646970667358221220d008ac2489c67d6266841322caec3b09d66c597def99a2461b93b2446222ab3564736f6c63430008180033",
  "linkReferences": {},
  "deployedLinkReferences": {}
}